:020000040000fa
:080000000001040000000000f3
:020000040000fa
:0400080004020000ee
:020000040000fa
:04000c0046020000a8
:020000040000fa
:040010008602000064
:020000040000fa
:0400140024020000c2
:020000040000fa
:04001800660200007c
:020000040000fa
:04001c00a602000038
:020000040000fa
:04002000a602000034
:020000040000fa
:04002400a602000030
:020000040000fa
:04002800a60200002c
:020000040000fa
:04002c00a602000028
:020000040000fa
:04003000a602000024
:020000040000fa
:04003400a602000020
:020000040000fa
:04003800a60200001c
:020000040000fa
:04003c00a602000018
:020000040000fa
:04004000a602000014
:020000040000fa
:04004400a602000010
:020000040000fa
:04004800a60200000c
:020000040000fa
:04004c00a602000008
:020000040000fa
:04005000a602000004
:020000040000fa
:04005400a602000000
:020000040000fa
:04005800a6020000fc
:020000040000fa
:04005c00a6020000f8
:020000040000fa
:04006000a6020000f4
:020000040000fa
:04006400a6020000f0
:020000040000fa
:04006800a6020000ec
:020000040000fa
:04006c00a6020000e8
:020000040000fa
:04007000a6020000e4
:020000040000fa
:04007400a6020000e0
:020000040000fa
:04007800a6020000dc
:020000040000fa
:04007c00a6020000d8
:020000040000fa
:04008000a6020000d4
:020000040000fa
:04008400a6020000d0
:020000040000fa
:04008800a6020000cc
:020000040000fa
:04008c00a6020000c8
:020000040000fa
:04009000a6020000c4
:020000040000fa
:04009400a6020000c0
:020000040000fa
:04009800a6020000bc
:020000040000fa
:04009c00a6020000b8
:020000040000fa
:0400a000a6020000b4
:020000040000fa
:0400a400a6020000b0
:020000040000fa
:0400a800a6020000ac
:020000040000fa
:0400ac00a6020000a8
:020000040000fa
:0400b000a6020000a4
:020000040000fa
:0400b400a6020000a0
:020000040000fa
:0400b800a60200009c
:020000040000fa
:0400bc00a602000098
:020000040000fa
:0400c000a602000094
:020000040000fa
:0400c400a602000090
:020000040000fa
:0400c800a60200008c
:020000040000fa
:0400cc00a602000088
:020000040000fa
:0400d000a602000084
:020000040000fa
:0400d400a602000080
:020000040000fa
:0400d800a60200007c
:020000040000fa
:0400dc00a602000078
:020000040000fa
:0400e000a602000074
:020000040000fa
:0400e400a602000070
:020000040000fa
:0400e800a60200006c
:020000040000fa
:0400ec00a602000068
:020000040000fa
:0400f000a602000064
:020000040000fa
:0400f400a602000060
:020000040000fa
:0400f800a60200005c
:020000040000fa
:0400fc00a602000058
:020000040000fa
:04010000a602000053
:020000040000fa
:04010400a60200004f
:020000040000fa
:04010800a60200004b
:020000040000fa
:04010c00a602000047
:020000040000fa
:04011000a602000043
:020000040000fa
:04011400a60200003f
:020000040000fa
:04011800a60200003b
:020000040000fa
:04011c00a602000037
:020000040000fa
:04012000a602000033
:020000040000fa
:04012400a60200002f
:020000040000fa
:04012800a60200002b
:020000040000fa
:04012c00a602000027
:020000040000fa
:04013000a602000023
:020000040000fa
:04013400a60200001f
:020000040000fa
:04013800a60200001b
:020000040000fa
:04013c00a602000017
:020000040000fa
:04014000a602000013
:020000040000fa
:04014400a60200000f
:020000040000fa
:04014800a60200000b
:020000040000fa
:04014c00a602000007
:020000040000fa
:04015000a602000003
:020000040000fa
:04015400a6020000ff
:020000040000fa
:04015800a6020000fb
:020000040000fa
:04015c00a6020000f7
:020000040000fa
:04016000a6020000f3
:020000040000fa
:04016400a6020000ef
:020000040000fa
:04016800a6020000eb
:020000040000fa
:04016c00a6020000e7
:020000040000fa
:04017000a6020000e3
:020000040000fa
:04017400a6020000df
:020000040000fa
:04017800a6020000db
:020000040000fa
:04017c00a6020000d7
:020000040000fa
:04018000a6020000d3
:020000040000fa
:04018400a6020000cf
:020000040000fa
:04018800a6020000cb
:020000040000fa
:04018c00a6020000c7
:020000040000fa
:04019000a6020000c3
:020000040000fa
:04019400a6020000bf
:020000040000fa
:04019800a6020000bb
:020000040000fa
:04019c00a6020000b7
:020000040000fa
:0401a000a6020000b3
:020000040000fa
:0401a400a6020000af
:020000040000fa
:0401a800a6020000ab
:020000040000fa
:0401ac00a6020000a7
:020000040000fa
:0401b000a6020000a3
:020000040000fa
:0401b400a60200009f
:020000040000fa
:0401b800a60200009b
:020000040000fa
:0401bc00a602000097
:020000040000fa
:0401c000a602000093
:020000040000fa
:0401c400a60200008f
:020000040000fa
:0401c800a60200008b
:020000040000fa
:0401cc00a602000087
:020000040000fa
:0401d000a602000083
:020000040000fa
:0401d400a60200007f
:020000040000fa
:0401d800a60200007b
:020000040000fa
:0401dc00a602000077
:020000040000fa
:0401e000a602000073
:020000040000fa
:0401e400a60200006f
:020000040000fa
:0401e800a60200006b
:020000040000fa
:0401ec00a602000067
:020000040000fa
:0401f000a602000063
:020000040000fa
:0401f400a60200005f
:020000040000fa
:0401f800a60200005b
:020000040000fa
:0401fc00a602000057
:020000040000fa
:100200006f8320000eff27000e0188000000000011
:10021000000020000000e000020032000001200089
:100220002002880014000700ca0007000000e00058
:1002300003003a008059200001002000020037002e
:100240000000200001002000810f7000010032003a
:1002500014000700000020000000e000020032004f
:100260000000020000000000b403020000000000d3
:100270000040da000000fe004440a90020002000f9
:100280000000e00003003200100020009001880010
:100290004440a800000006008a1f78008b1f7800e9
:1002a00000000600a1028800800478000000eb0036
:1002b0001f003700e284440054a0b4009905ba003e
:1002c000e284440054a0b4009906ba00e2844400d9
:1002d00054a0b4000006eb00476fde00fd07b2003b
:1002e000ae018800636ce10003003a00eaff0700fa
:1002f0000000eb000e003700606ce10008003a00df
:10030000004deb000a05e800020039003420ec0043
:100310000af0a0008b05e900f9ff3e000400370059
:100320006168e100010032000086eb000b0007006d
:1003300019c7ba001905ba000e04e00003003a001c
:100340000a00e000dbff3a0000000600fe07b200f2
:10035000ae0288008a047800f5ff37000cd0a300b5
:10036000e20f4d001c00390089027800354dba00bb
:100370000a05e800020039003420ec000af0a00071
:100380008b05e9000f003200254dba000a05e80090
:10039000020039003420ec000af0a0008b05e900cf
:1003a000080032000c00e0000600320015cdba0053
:1003b0000a05e800020039003420ec000af0a00031
:1003c0008b05e9008984e80054a0b4000b00e0002c
:1003d000e2ff3a00000006009902ba00055d7800cd
:1003e0008b05e900f7ff3200c82ade00055d7800c2
:1003f0008b05e900f3ff32000c00e000f1ff320052
:1004000019ddba00eeff37003600f800809fbe000d
:10041000829fbe00849fbe00869fbe000000fa003f
:100420008020a9000000eb00da0107000080fa003c
:100430004f03be004f02be004f01be004f00be0082
:100440003600f900004006003600f800809fbe002c
:10045000829fbe00849fbe00869fbe000000fa00ff
:10046000d10107008040a90010002000c901070049
:100470000080fa004f03be004f02be004f01be00d5
:100480004f00be003600f900004006003600f800bc
:10049000809fbe00829fbe00849fbe00869fbe00dc
:1004a0000000fa008060a90020002000b9010700c8
:1004b0000080fa004f03be004f02be004f01be0095
:1004c0004f00be003600f900004006003600f8007c
:1004d000809fbe00829fbe00849fbe00869fbe009c
:1004e0000000fa008080a90030002000a901070068
:1004f0000080fa004f03be004f02be004f01be0055
:100500004f00be003600f900004006003600f8003b
:10051000809fbe00829fbe00849fbe00869fbe005b
:100520000000fa008600a900700020009901070071
:100530000080fa004f03be004f02be004f01be0014
:100540004f00be003600f900004006000040da000f
:080550000000fe0000000500a0
:020000040000fa
:100558000000fa00f5e3a900f5a3a9000224ef00c2
:100568000024ef00f4e3a900f4a3a800f483a90091
:10057800f583a900f463a900c6a6a900c8a6a80027
:10058800f5e3a8000080fa00000006000000fa0069
:10059800f5e3a900f5a3a9000224ef000024ef0069
:1005a800f4e3a900f4a3a800f483a900f583a90043
:1005b800f463a900dba6a900dda6a800f5e3a8005e
:1005c8000080fa00000006000400fa0020479800a6
:1005d8002e4090000080fb000020880000000000f2
:1005e800e01f8000610060000000e000fcff3200b6
:1005f800fc03a90000208000004f78000080fa006a
:10060800000006000000fa00f00f2000002088001b
:1006180000000000e01f8000610060000000e000b2
:10062800fcff3200fc03a900002080000040780095
:100638000080fa00000006000000fa009f66a9008a
:1006480077e6a9009e86a9009ea6a900a166a90032
:1006580079e6a800a086a800a0a6a9000080fa0054
:10066800000006000000fa009f66a90077e6a900ce
:100678009e86a9009ea6a900a166a90079e6a80001
:10068800a086a900a0a6a8000080fa000000060025
:100698000000fa009f66a90077e6a9009e86a900d7
:1006a800b206a900b226a900b246a900b266a900fe
:1006b800b286a900b2a6a900b2c6a900b2e6a900ee
:1006c800c626a90000000000a166a90079e6a900d5
:1006d800a086a900b4e6a800b4c6a900b4a6a800dc
:1006e800b486a900b466a800b446a800b426a80039
:1006f800b406a800c826a8000080fa00000006007a
:100708000000fa0077e6a9009e86a900b206a900b3
:10071800b226a900b246a900b266a900b286a9000d
:10072800b2a6a900b2c6a900b2e6a900000000005e
:1007380079e6a900a086a900b4e6a800b4c6a90075
:10074800b4a6a800b486a900b466a900b446a80057
:10075800b426a900b406a8000080fa00000006002c
:100768000000fa00150107006206a9006406a80047
:100778006226a9006426a800950007001c0107004e
:10078800180107001d010700fbff37000000fa00f1
:100798009021ef0030422f00900c880000022800c2
:1007a800a00c8800408320008040eb0001487800be
:1007b8000080fa00000006000000fa0040048000f3
:1007c800680060000000e00009003200508320004b
:1007d800104078008040e8005083200001487800ed
:1007e8004083200011c0b300014878008860a90048
:1007f8000080fa00000006000200fa00000f7800ee
:100808009e007800910c8800408320008040eb0017
:10081800014878000080fa00000006000000fa0095
:10082800900c80000080fa00000006000200fa0028
:10083800000f78009e007800810c8800408320001b
:100848008040eb00014878000080fa0000000600b4
:100858000000fa00800c80000080fa00000006000a
:100868000000fa00408320008040eb000148780037
:1008780095e1a8000080fa00000006000000fa00d8
:1008880095e1a9000080fa00000006000200fa00c5
:1008980040832000104f78001e4078000004e000dc
:1008a80003003200408320008040eb0001487800bc
:1008b8001e4078000080fa00000006000000fa00e0
:1008c80050832000104078000080fb000080fa0070
:1008d800000006000000fa00508320008040eb0072
:1008e800014878000080fa00000006000000fa00c5
:1008f8006626ef007a26ef008e26ef00a226ef008c
:10090800b626ef00ca26ef00de26ef00f00f2c0017
:10091800103388000080eb00b0338800e001270026
:10092800503488000080eb00f0348800f03f20004d
:1009380090358800f01b230030368800f03c2f00eb
:10094800d03688007426ef008826ef009c26ef003a
:10095800b026ef00c426ef00d826ef00ec26ef0003
:100968007226ef008626ef009a26ef00ae26ef00eb
:10097800c226ef00d626ef00ea26ef006826ef0031
:100988007c26ef009026ef00a426ef00b826ef00a3
:10099800cc26ef00e026ef00000c20005033880042
:1009a800c0ff2f00f0338800000122009034880037
:1009b800000c20003035880000212000d035880048
:1009c800003c2000103788000080fa000000060074
:1009d8000000fa0000408000e20f50000d003200d5
:1009e800e20f500003003e00e10f50000600320005
:1009f80028003700e50f500009003200e60f5000cc
:100a0800120032002300370010408000e10f500030
:100a18001900320010408000e10f50001800320029
:100a280010408000e10f500017003a0004c8bf00d2
:100a38000080fb0080004000e08220000080400031
:100a48001000780010408800120037001040800025
:100a58000000e00003003a00100020001040880069
:100a68000c00370010408000e10f500008003a00e9
:100a78000228ef00070037000000000005003700db
:100a880000000000030037000000000001003700ec
:100a9800000000000080fa00000006000000fa00d4
:100aa80000002300100888000621ef006821ef00ed
:100ab8006a21ef000821ef0000702000500888002c
:100ac8000c21ef000e21ef007821ef007a21ef00d2
:100ad8007c21ef007e21ef008021ef008221ef00d2
:100ae8008421ef008621ef000001eb008007200041
:100af800a10920001310200080497800814978005e
:100b0800824978000001eb00600420007105200094
:100b180003102000804978008149780082497800d4
:080b28000080fa000000060045
:020000040000fa
:100b30003408000002000000800000000e080000e1
:100b400020000000800000000a08000002000000f1
:100b500082000000ffff0000060800000400000003
:100b6000800000000c08000002000000800000006f
:100b70002e080000060000008200000002000300b2
:100b800000040000000800000600000080000000d3
:040b90000000000061
:020000040000fa
:100b94000200fa00000f78009e007800514088009f
:100ba400ffff37000000fa00e08020008007780093
:100bb40060822000000188000080fa000000060026
:100bc4000000fa004aff0700b5ff07000300070012
:100bd400effe07000080fa00000006000000fa00a3
:100be4000080fa00000006000000fa000080fa000d
:100bf400000006000000fa000080fa000000060071
:0c0c04000000fa000080fa00000006006a
:020000040000fa
:020000040015e5
:047e0000ffffff0081
:020000040000fa
:020000040015e5
:047e2000ff1f000040
:020000040000fa
:020000040015e5
:047e300078ffff00d8
:020000040000fa
:020000040015e5
:047e3800b3ffff0095
:020000040000fa
:020000040015e5
:047e40009fffff00a1
:020000040000fa
:020000040015e5
:047e4800ffffff0039
:020000040000fa
:020000040015e5
:047e5000dfffff0051
:020000040000fa
:020000040015e5
:047e5800ffffff0029
:020000040000fa
:020000040100f9
:04300000ffffff00cf
:00000001FF
