:020000040000fa
:080000000001040000000000f3
:020000040000fa
:0400080010020000e2
:020000040000fa
:04000c00520200009c
:020000040000fa
:040010009202000058
:020000040000fa
:0400140030020000b6
:020000040000fa
:040018007202000070
:020000040000fa
:04001c00b20200002c
:020000040000fa
:04002000b202000028
:020000040000fa
:04002400b202000024
:020000040000fa
:04002800b202000020
:020000040000fa
:04002c00b20200001c
:020000040000fa
:04003000b202000018
:020000040000fa
:04003400b202000014
:020000040000fa
:04003800b202000010
:020000040000fa
:04003c00b20200000c
:020000040000fa
:04004000b202000008
:020000040000fa
:04004400b202000004
:020000040000fa
:04004800b202000000
:020000040000fa
:04004c00b2020000fc
:020000040000fa
:04005000b2020000f8
:020000040000fa
:04005400b2020000f4
:020000040000fa
:04005800b2020000f0
:020000040000fa
:04005c00b2020000ec
:020000040000fa
:04006000b2020000e8
:020000040000fa
:04006400b2020000e4
:020000040000fa
:04006800b2020000e0
:020000040000fa
:04006c00b2020000dc
:020000040000fa
:04007000b2020000d8
:020000040000fa
:04007400b2020000d4
:020000040000fa
:04007800b2020000d0
:020000040000fa
:04007c00b2020000cc
:020000040000fa
:04008000b2020000c8
:020000040000fa
:04008400b2020000c4
:020000040000fa
:04008800b2020000c0
:020000040000fa
:04008c00b2020000bc
:020000040000fa
:04009000b2020000b8
:020000040000fa
:04009400b2020000b4
:020000040000fa
:04009800b2020000b0
:020000040000fa
:04009c00b2020000ac
:020000040000fa
:0400a000b2020000a8
:020000040000fa
:0400a400b2020000a4
:020000040000fa
:0400a800b2020000a0
:020000040000fa
:0400ac00b20200009c
:020000040000fa
:0400b000b202000098
:020000040000fa
:0400b400b202000094
:020000040000fa
:0400b800b202000090
:020000040000fa
:0400bc00b20200008c
:020000040000fa
:0400c000b202000088
:020000040000fa
:0400c400b202000084
:020000040000fa
:0400c800b202000080
:020000040000fa
:0400cc00b20200007c
:020000040000fa
:0400d000b202000078
:020000040000fa
:0400d400b202000074
:020000040000fa
:0400d800b202000070
:020000040000fa
:0400dc00b20200006c
:020000040000fa
:0400e000b202000068
:020000040000fa
:0400e400b202000064
:020000040000fa
:0400e800b202000060
:020000040000fa
:0400ec00b20200005c
:020000040000fa
:0400f000b202000058
:020000040000fa
:0400f400b202000054
:020000040000fa
:0400f800b202000050
:020000040000fa
:0400fc00b20200004c
:020000040000fa
:04010000b202000047
:020000040000fa
:04010400b202000043
:020000040000fa
:04010800b20200003f
:020000040000fa
:04010c00b20200003b
:020000040000fa
:04011000b202000037
:020000040000fa
:04011400b202000033
:020000040000fa
:04011800b20200002f
:020000040000fa
:04011c00b20200002b
:020000040000fa
:04012000b202000027
:020000040000fa
:04012400b202000023
:020000040000fa
:04012800b20200001f
:020000040000fa
:04012c00b20200001b
:020000040000fa
:04013000b202000017
:020000040000fa
:04013400b202000013
:020000040000fa
:04013800b20200000f
:020000040000fa
:04013c00b20200000b
:020000040000fa
:04014000b202000007
:020000040000fa
:04014400b202000003
:020000040000fa
:04014800b2020000ff
:020000040000fa
:04014c00b2020000fb
:020000040000fa
:04015000b2020000f7
:020000040000fa
:04015400b2020000f3
:020000040000fa
:04015800b2020000ef
:020000040000fa
:04015c00b2020000eb
:020000040000fa
:04016000b2020000e7
:020000040000fa
:04016400b2020000e3
:020000040000fa
:04016800b2020000df
:020000040000fa
:04016c00b2020000db
:020000040000fa
:04017000b2020000d7
:020000040000fa
:04017400b2020000d3
:020000040000fa
:04017800b2020000cf
:020000040000fa
:04017c00b2020000cb
:020000040000fa
:04018000b2020000c7
:020000040000fa
:04018400b2020000c3
:020000040000fa
:04018800b2020000bf
:020000040000fa
:04018c00b2020000bb
:020000040000fa
:04019000b2020000b7
:020000040000fa
:04019400b2020000b3
:020000040000fa
:04019800b2020000af
:020000040000fa
:04019c00b2020000ab
:020000040000fa
:0401a000b2020000a7
:020000040000fa
:0401a400b2020000a3
:020000040000fa
:0401a800b20200009f
:020000040000fa
:0401ac00b20200009b
:020000040000fa
:0401b000b202000097
:020000040000fa
:0401b400b202000093
:020000040000fa
:0401b800b20200008f
:020000040000fa
:0401bc00b20200008b
:020000040000fa
:0401c000b202000087
:020000040000fa
:0401c400b202000083
:020000040000fa
:0401c800b20200007f
:020000040000fa
:0401cc00b20200007b
:020000040000fa
:0401d000b202000077
:020000040000fa
:0401d400b202000073
:020000040000fa
:0401d800b20200006f
:020000040000fa
:0401dc00b20200006b
:020000040000fa
:0401e000b202000067
:020000040000fa
:0401e400b202000063
:020000040000fa
:0401e800b20200005f
:020000040000fa
:0401ec00b20200005b
:020000040000fa
:0401f000b202000057
:020000040000fa
:0401f400b202000053
:020000040000fa
:0401f800b20200004f
:020000040000fa
:0401fc00b20200004b
:020000040000fa
:100200000fc420000eff27000e0188000000000030
:10021000000020000000e000020032000001200089
:100220002002880014000700d00007000000e00052
:1002300003003a00009a2400010020000200370069
:100240000000200001002000810f7000010032003a
:1002500014000700000020000000e000020032004f
:100260000000020000000000b24802000000000090
:100270000040da000000fe004440a9008089200010
:100280000000e00003003200002020009001880000
:100290004440a800000006008a1f78008b1f7800e9
:1002a00000000600a1028800800478000000eb0036
:1002b0001f003700e284440054a0b4009905ba003e
:1002c000e284440054a0b4009906ba00e2844400d9
:1002d00054a0b4000006eb00476fde00fd07b2003b
:1002e000ae018800636ce10003003a00eaff0700fa
:1002f0000000eb000e003700606ce10008003a00df
:10030000004deb000a05e800020039003420ec0043
:100310000af0a0008b05e900f9ff3e000400370059
:100320006168e100010032000086eb000b0007006d
:1003300019c7ba001905ba000e04e00003003a001c
:100340000a00e000dbff3a0000000600fe07b200f2
:10035000ae0288008a047800f5ff37000cd0a300b5
:10036000e20f4d001c00390089027800354dba00bb
:100370000a05e800020039003420ec000af0a00071
:100380008b05e9000f003200254dba000a05e80090
:10039000020039003420ec000af0a0008b05e900cf
:1003a000080032000c00e0000600320015cdba0053
:1003b0000a05e800020039003420ec000af0a00031
:1003c0008b05e9008984e80054a0b4000b00e0002c
:1003d000e2ff3a00000006009902ba00055d7800cd
:1003e0008b05e900f7ff3200c82ade00055d7800c2
:1003f0008b05e900f3ff32000c00e000f1ff320052
:1004000019ddba00eeff3700763704000000000067
:10041000d23e04000000000078410400000000000b
:100420003600f800809fbe00829fbe00849fbe0001
:10043000869fbe000000fa008020a9000000eb00ab
:10044000152407000080fa004f03be004f02be00d3
:100450004f01be004f00be003600f900004006000c
:100460003600f800809fbe00829fbe00849fbe00c1
:10047000869fbe000000fa000c2407008040a900ff
:1004800010002000042407000080fa004f03be0083
:100490004f02be004f01be004f00be003600f90003
:1004a000004006003600f800809fbe00829fbe001c
:1004b000849fbe00869fbe000000fa008060a900f5
:1004c00020002000f42307000080fa004f03be0044
:1004d0004f02be004f01be004f00be003600f900c3
:1004e000004006003600f800809fbe00829fbe00dc
:1004f000849fbe00869fbe000000fa008080a90095
:1005000030002000e42307000080fa004f03be0003
:100510004f02be004f01be004f00be003600f90082
:10052000004006003600f800809fbe00829fbe009b
:10053000849fbe00869fbe000000fa008600a900ce
:1005400070002000d42307000080fa004f03be0093
:100550004f02be004f01be004f00be003600f90042
:10056000004006000040da000000fe000000050028
:020000040000fa
:10057000000000000000000000000000000000007b
:100580001c220000362200002a2200001c0000006d
:100590001c3e00002a3e0000223e00001c0000001d
:1005a000001400003e3e00003e1c00000800000059
:1005b000000800001c3e00003e1c00000800000077
:1005c000081c00001c0800003e3e0000080000005f
:1005d000000800001c3e00003e0800001c00000057
:1005e000000000000000000000000000000000000b
:1005f00000000000000000000000000000000000fb
:1006000000000000000000000000000000000000ea
:1006100000000000000000000000000000000000da
:1006200000380000302c0000121200000c00000006
:100630001c220000221c0000081c00000800000012
:1006400000000000000000000000000000000000aa
:10065000302c0000342c000034360000060000006e
:10066000002a00001c3600001c2a000000000000c8
:10067000040c00001c3c00001c0c000004000000e6
:10068000101800001c1e00001c18000010000000c4
:10069000081c00003e0800003e1c0000080000008e
:1006a00014140000141400001400000014000000d2
:1006b0003c2a00002a2c0000282800002800000006
:1006c0001c2200000c140000182200001c00000076
:1006d0000000000000000000001e00001e000000de
:1006e000081c00003e0800003e1c0000081c000022
:1006f000081c00003e080000080800000800000078
:1007000008080000080800003e1c00000800000067
:1007100000080000183e000018080000000000005b
:10072000000800000c3e00000c0800000000000063
:100730000000000000020000020200003e00000075
:1007400000140000143e000014140000000000001b
:10075000080800001c1c00003e3e000000000000d5
:100760003e3e00001c1c00000808000000000000c5
:100770000000000000000000000000000000000079
:10078000081c00001c080000080000000800000011
:1007900036360000120000000000000000000000db
:1007a000001400003e140000143e0000140000007d
:1007b000041c0000020c0000100e000008000000e5
:1007c000262600001008000004320000320000005d
:1007d000040a00000a0400002a1200002c00000095
:1007e0000c0c0000040000000000000000000000ed
:1007f00008040000040400000404000008000000d5
:1008000004080000080800000808000004000000b8
:10081000001400001c3e00001c140000000000003a
:1008200000080000083e000008080000000000006a
:100830000000000000000000000c00000c0400009c
:1008400000000000003e000000000000000000006a
:100850000000000000000000000c00000c00000080
:10086000002000001008000004020000000000004a
:100870001c220000322a0000262200001c0000007a
:10088000080c000008080000080800001c00000018
:100890001c22000020180000040200003e0000009e
:1008a0001c220000201c0000202200001c00000070
:1008b00010180000141200003e100000100000008c
:1008c0003e020000021e0000202200001c0000006a
:1008d00018040000021e0000222200001c0000007c
:1008e0003e20000010080000040400000400000086
:1008f0001c220000221c0000222200001c0000001c
:100900001c220000223c0000201000000c0000000f
:10091000000000000c0c0000000c00000c000000a7
:10092000000000000c0c0000000c00000c04000093
:10093000100800000402000004080000100000007d
:10094000000000003e000000003e0000000000002b
:10095000040800001020000010080000040000003f
:100960001c22000020180000080000000800000001
:100970001c2200003a2a00003a0200001c0000007d
:100980001c220000222200003e2200002200000063
:100990001e220000221e0000222200001e00000075
:1009a0001c22000002020000022200001c000000c5
:1009b0001e22000022220000222200001e00000051
:1009c0003e020000021e0000020200003e00000085
:1009d0003e020000021e00000202000002000000b1
:1009e0001c220000023a0000222200003c0000000d
:1009f00022220000223e00002222000022000000ed
:100a00001c08000008080000080800001c00000086
:100a10002020000020200000222200001c000000f6
:100a2000221200000a0600000a1200002200000044
:100a30000202000002020000020200003e0000006c
:100a4000223600002a22000022220000220000009c
:100a5000222600002a32000022220000220000008c
:100a60001c22000022220000222200001c000000a4
:100a70001e220000221e00000202000002000000f0
:100a80001c220000222200002a1200002c0000007c
:100a90001e220000221e0000122200002200000080
:100aa0001c220000021c0000202200001c0000008c
:100ab0003e080000080800000808000008000000c8
:100ac0002222000022220000222200001c0000003e
:100ad0002222000022220000221400000800000050
:100ae000222200002a2a00002a2a00001400000006
:100af000222200001408000014220000220000003e
:100b00002222000022140000080800000800000053
:100b10001e10000008040000020200001e00000079
:100b20001c04000004040000040400001c00000079
:100b30000002000004080000102000000000000077
:100b40001c10000010100000101000001c0000001d
:100b50000814000022000000000000000000000057
:100b6000000000000000000000000000003f000046
:100b70000c0c000008000000000000000000000055
:100b8000000000001c2000003c2200003c0000008f
:100b9000020200001e220000222200001e000000af
:100ba000000000001c220000022200001c000000c7
:100bb000202000003c220000222200003c00000017
:100bc000000000001c2200001e0200001c000000ab
:100bd00018040000041e00000404000004000000cb
:100be000000000003c220000223c0000201c00000d
:100bf000020200000e12000012120000120000009b
:100c000008000000080800000808000018000000a4
:100c1000100000001810000010100000120c00005e
:100c200002020000120a0000060a00001200000082
:100c3000080800000808000008080000180000006c
:100c400000000000162a00002a22000022000000f6
:100c5000000000000e12000012120000120000003e
:100c6000000000001c220000222200001c000000e6
:100c7000000000001e220000222200001e020000d0
:100c8000000000003c220000222200003c20000066
:100c9000000000001a240000040400000e00000000
:100ca000000000001c0200001c2000001c000000ce
:100cb000000400001e0400000414000008000000ee
:100cc0000000000012120000121a000014000000c0
:100cd0000000000022220000221400000800000092
:100ce00000000000222200002a3e00001400000044
:100cf00000000000121200000c12000012000000a0
:100d00000000000012120000121c00000806000083
:100d1000000000001e1000000c0200001e00000079
:100d2000180400000406000004040000180000007d
:100d30000808000008000000080800000800000083
:100d40000c10000010300000101000000c0000001b
:100d5000140a000000000000000000000000000075
:100d6000081c000036220000223e000000000000a7
:100d70001c22000002020000221c0000080c0000df
:100d80001200000012120000121a000014000000ed
:100d9000300000001c2200001e0200001c000000a9
:100da0001c0000001c2000003c2200003c00000051
:100db000140000001c2000003c2200003c00000049
:100dc0000c0000001c2000003c2200003c00000041
:100dd0001c1400001c2000003c2200003c0000000d
:100de000001c000022020000221c0000080c000071
:100df0001c0000001c2200001e0200001c0000005d
:100e0000140000001c2200001e0200001c00000054
:100e10000c0000001c2200001e0200001c0000004c
:100e20001400000008080000080800001800000076
:100e30001c0000000808000008080000180000005e
:100e40000400000008080000080800001800000066
:100e50001400000008140000223e000022000000e0
:100e60001c1400001c360000223e0000220000007e
:100e7000300000003e0200001e0200003e000000a4
:100e8000000000001e2800003e0a00003c00000098
:100e90003c0a00000a3e00000a0a00003a00000076
:100ea0001c0000000c120000121200000c000000d8
:100eb000140000000c120000121200000c000000d0
:100ec000060000000c120000121200000c000000ce
:100ed0001c00000012120000121a00001400000092
:100ee0000600000012120000121a00001400000098
:100ef0001400000012120000121c0000080600007e
:100f0000120c000012120000121200000c0000006f
:100f10001400000012120000121200000c00000069
:100f200000000000201c00001a1600000e01000046
:100f300018240000041e0000042400003a000000f1
:100f40003c3200002a2a00002a2600001e00000071
:100f5000002200001408000014220000000000001d
:100f600010280000081c0000080800000a04000007
:100f7000180000001c2000003c2200003c00000083
:100f80001800000008080000080800001800000011
:100f9000180000000c120000121200000c000000eb
:100fa0001800000012120000121a000014000000c5
:100fb000140a0000000e00001212000012000000cf
:100fc000140a000000120000161a000012000000af
:100fd0001c2000003c2200003c0000003c000000ff
:100fe0000c120000121200000c0000001e00000095
:100ff00008000000080c0000022200001c00000095
:101000001e290000352d0000352100001e000000c3
:10101000000000003f200000200000000000000051
:10102000021200000a1c000022100000380000001c
:10103000021200000a3400002a38000020000000dc
:1010400008000000080800001c1c00000800000048
:101050000000000024120000240000000000000036
:101060000000000012240000120000000000000038
:101070002a000000150000002a00000015000000f2
:101080002a1500002a1500002a1500002a15000064
:10109000153f00002a3f0000153f00002a3f0000d6
:1010a0000808000008080000080800000808000000
:1010b00008080000080f00000808000008080000e9
:1010c0001800000008140000223e0000220000006a
:1010d0001c00000008140000223e00002200000056
:1010e0000c00000008140000223e00002200000056
:1010f0001e2100002d2500002d2100001e000000f3
:101100000a0b0000080b00000a0a00000a0a00008f
:101110000a0a00000a0a00000a0a00000a0a00007f
:10112000000f0000080b00000a0a00000a0a000075
:101130000a0b0000080f0000000000000000000083
:10114000000800001c020000021c00000800000053
:1011500022140000083e0000083e000008000000c5
:1011600000000000000f0000080800000808000050
:10117000080800000838000000000000000000001f
:1011800008080000083f0000000000000000000008
:1011900000000000003f00000808000008080000f0
:1011a00008080000083800000808000008080000cf
:1011b00000000000003f00000000000000000000f0
:1011c00008080000083f00000808000008080000a8
:1011d000281400001c2000003c2200003c000000fd
:1011e0002814000008140000223e00002200000025
:1011f0000a3a0000023e000000000000000000006b
:10120000003e0000023a00000a0a00000a0a00003c
:101210000a3b0000003f000000000000000000004a
:10122000003f0000003b00000a0a00000a0a00001c
:101230000a3a0000023a00000a0a00000a0a000006
:10124000003f0000003f0000000000000000000020
:101250000a3b0000003b00000a0a00000a0a0000e6
:10126000221c000022220000221c0000220000009c
:101270000c020000040800001c1200000c0000001a
:101280001c240000242e0000242400001c00000068
:101290001c0000003e0200001e0200003e00000094
:1012a000140000003e0200001e0200003e0000008c
:1012b0000c0000003e0200001e0200003e00000084
:1012c0000808000008000000000000000000000006
:1012d000180000001c080000080800001c000000a6
:1012e0001c0000001c080000080800001c00000092
:1012f000140000001c080000080800001c0000008a
:1013000008080000080f00000000000000000000b6
:101310000000000000380000080800000808000075
:101320003f3f00003f3f00003f3f00003f3f0000c5
:1013300000000000000000003f3f00003f3f0000b1
:10134000080800000800000008080000080000006d
:101350000c0000001c080000080800001c00000031
:101360003f3f00003f3f0000000000000000000081
:10137000180c000012120000121200000c000000f5
:10138000000e0000120e0000121200000e020000fb
:101390001c0c000012120000121200000c000000d1
:1013a000060c000012120000121200000c000000d7
:1013b000140a0000000c0000121200000c000000d3
:1013c000140a00000c120000121200000c000000b1
:1013d0000000000012120000120e000002020000c5
:1013e00000060000020e0000120e000002060000bf
:1013f000060200000e120000120e0000020600009d
:101400001800000012120000121200000c00000070
:101410001c00000012120000121200000c0000005c
:101420000600000012120000121200000c00000062
:101430001800000012120000121c00000806000034
:101440001800000022140000080800000800000036
:10145000001c000000000000000000000000000070
:101460000c0c000004000000000000000000000060
:1014700000000000001c0000000000000000000050
:10148000000800001c080000001c00000000000014
:10149000000000003e000000003e000000000000d0
:1014a000031600000b3400002a3800002000000062
:1014b0003c2a00002a2c00002828000028000000f8
:1014c0001c2200000c140000182200001c00000068
:1014d00000080000003e00000008000000000000be
:1014e00000000000001c00001800000000000000c8
:1014f0000c120000120c00000000000000000000b0
:1015000000000000001400000000000000000000c7
:1015100000000000000400000000000000000000c7
:1015200004060000040400000000000000000000a9
:101530000e0400000c060000000000000000000087
:1015400006080000040e000000000000000000007b
:10155000000000001e1e00001e1e00000000000013
:10156000000000000000000000000000000000007b
:10157000b88200000600000008000000646400005b
:101580006400000064640000640000006464000003
:10159000640000006464000064000000ffff0000bd
:1015a000ff000000ffff0000ff000000696900006d
:1015b000690000006969000069000000e3e30000c1
:1015c000e3000000e3e30000e3000000a0a000004f
:1015d000a0000000a0a00000a000000064640000c3
:1015e00064000000646400006400000064640000a3
:1015f000640000006464000064000000a0a000001b
:10160000a0000000a0a00000a0000000a0a000001a
:10161000a0000000a0a00000a0000000f0f000006a
:10162000f0000000f0f00000f0000000f0f000001a
:10163000f0000000f0f00000f00000006464000022
:101640006400000064640000640000006464000042
:10165000640000006464000064000000ffff0000fc
:10166000ff000000ffff0000ff00000069690000ac
:10167000690000006969000069000000e3e3000000
:10168000e3000000e3e30000e3000000a0a000008e
:10169000a0000000a0a00000a00000002d0000009d
:020000040000fa
:1016a0000a00fa00100798002107980032079800f6
:1016b000430798001e009000ae00900001087800db
:1016c0001e009000be009000110098001e009000c7
:1016d000ce009000210098001e00900041002000e4
:1016e000310898001e009000410020004108980039
:1016f0001e009000900090001e00900030089000a6
:10170000008050008000e9001e0090005108980001
:101710001e009000a00090001e0090003008900075
:10172000008050008000e9001e00900061089800d1
:101730001e009000d00890001e0090001108980034
:101740001e009000e00890001e0090002108980004
:101750001e00900011c0b300416898001e00900068
:1017600011c0b300516898001e0090008000eb008b
:10177000311098001e019000f0be2800e105200005
:1017800030199800411998001e0190006000b800bf
:1017900070119800011998001e019000f0ff2f00b1
:1017a000f10f200010199800211998001e009000d8
:1017b0008000eb00610098001e0090008000eb00ac
:1017c000710098001e0090008000eb000108980056
:1017d0000040eb00004f78000f0037001e80fb0038
:1017e0009e0090006f0040004200dd00008040003d
:1017f0008000eb00010878001e80fb009e00900036
:101800004200dd0000804000e003b0008040eb00bb
:10181000014878001e4fe8001e407800e14f50005c
:10182000eeff36009e0090008140880010002000ee
:101830000080fa00000006000200fa00000f7800a5
:101840009e00780081408800100020000080fa008f
:10185000000006000200fa00000f780080408000bf
:101860009e00780091007800311098008040800040
:101870009e00780091009000411098008040800008
:101880009e007800a1009000511098000080fa009e
:10189000000006000400fa00008fbe0080408000b7
:1018a000200090008000e90080408000100090003f
:1018b0000000e9001e02be008101780000017800ee
:1018c0008000eb000000eb00020007000080fa003f
:1018d000000006001000fa00200798003107980069
:1018e000420798005307980064079800750798000e
:1018f000ce0090002e009000808f500006003d002a
:10190000ce009000010f7800ae00900041079800d3
:101910009e00780021079800de0090003e009000b5
:10192000808f500006003d00de009000010f78001f
:10193000be009000510798009e0078003107980083
:101940008040800020c090000080fb0062006000aa
:101950000000e0000c003200804080000020900079
:10196000000378006e029000fe029000de019000fd
:101970004e019000be0090002e0090000600010075
:101980000004e0001a003200be0090001107980029
:1019900012003700ae009000010f780008003700f9
:1019a00080408000100278006e019000fe019000df
:1019b0009e0090001e007800040001001e0fe80049
:1019c0004e0090009e007800808f5000f4ff34009d
:1019d0001e0090000000e800100798009e00900094
:1019e0005e009000808f5000eaff34000100370055
:1019f000000000000080fa00000006001400fa0059
:101a00003007980041079800520798006307980034
:101a100074079800060f9800170f9800de009000da
:101a20003e009000808f500006003d00de009000d8
:101a3000010f7800be009000510798009e007800ca
:101a400031079800ee0090004e009000808f50000b
:101a500006003d00ee00900011079800ce009000b7
:101a6000610798009e009000410798007e0090005a
:101a70000000e000890034007e009000000040007b
:101a800063001000200798000000eb00000f7800b2
:101a9000fe00900011079800de0090007e0090008c
:101aa000808050003e0190007e00900000004100c8
:101ab0000e0a90009e0a9000ee019000010178004d
:101ac000ce00900083ff07006f0037001e009000db
:101ad0000000e0002a0034009e0090006e0090009c
:101ae000808040007e009000808150005e00900069
:101af0009e0040007e00900000815000ce009000cb
:101b00001e009000808050007e0090008080400089
:101b10005e0090001e0240007e0090000000520017
:101b20000e0a90009e0a9000150307009e00900088
:101b30006e009000808040007e0090008081500008
:101b40003e0090009e0050007e009000008140000a
:101b5000ce0090001e009000808050007e0090001b
:101b6000808040003e0090001e0250007e009000e9
:101b7000000042000e0a90009e0a90000003070039
:101b80001e0078000000e0002a0034006e00900083
:101b90009e0040007e00900080815000be009000ba
:101ba0001e009000808050007e0090000081400068
:101bb0004e0090009e0050007e009000808040000b
:101bc0003e0290001e009000000252007e00900035
:101bd000000042000e0a90009e0a9000e8020700f2
:101be0006e0090009e0040007e00900080815000ba
:101bf000de0090001e009000808040007e0090007b
:101c0000008150004e0090009e0050007e00900029
:101c1000808040005e0290001e00900000024200a2
:101c20007e009000000052000e0a90009e0a900074
:101c3000d30207002e0090000000e00007003d00e6
:101c40001e0078004200dd0066004000ae009000fb
:101c500000804000200798000a0037001e00900016
:101c60001e0010004200dd006a004000ae0090003f
:101c700000804000200798001e0090000000e9004e
:101c8000100798001e0fe8001e0090009e007800cc
:101c9000808f50008dff34000100370000000000ed
:101ca0000080fa00000006001000fa0020079800eb
:101cb000310798004207980053079800640798007e
:101cc00075079800ce0090002e009000808f500085
:101cd00006003d00ce009000010f7800ae0090009d
:101ce000410798009e00780021079800de009000d0
:101cf0003e009000808f500006003d00de00900006
:101d0000010f7800be009000510798009e007800f7
:101d100031079800be0090001107980012003700ac
:101d2000ae009000010f780008003700804080006e
:101d3000100278006e019000fe0190009e0090005d
:101d40001e007800040001001e8fe8004e00900085
:101d50009e007800808f5000f4ff34001e00900039
:101d60000080e800100798009e0090005e00900040
:101d7000808f5000eaff34000080fa000000060067
:101d80000c00fa00000f7800110798002207980055
:101d90003307980044079800550798004e029000ba
:101da000de0290009e0190002e0190009e009000a7
:101db0001e007800720207004e029000de029000c2
:101dc000be0190002e019000be0090001e00780021
:101dd0006b0207004e029000de029000be019000f0
:101de0001e0178009e0090001e007800640207002b
:101df0004e029000de029000be0190002e01900085
:101e00009e0090002e0090005d0207000080fa0006
:101e1000000006001000fa00100798002107980043
:101e20003207980043079800540798006607980007
:101e300077079800be0090001e009000808f500031
:101e400006003d00be009000010f78009e0090004b
:101e5000310798009e00780011079800ce0090008e
:101e60002e009000808f500006003d00ce009000b4
:101e7000010f7800ae009000410798009e007800a6
:101e800021079800de0090003e009000808f5000f7
:101e900063003c00de0090004e009000808f5000f8
:101ea00061003c00be0090005e0090008080500009
:101eb0001e0190005e009000000041006e02900044
:101ec000fe029000ae01900001017800ae0090008b
:101ed0002b020700be0090005e0090008080500042
:101ee0001e0190005e009000000041006e02900014
:101ef000fe029000ce01900001017800ce0090001b
:101f00001f020700ce0090005e009000808050000d
:101f10002e0190005e009000000041006e029000d3
:101f2000fe029000810178001e0190008000780080
:101f30001e00900012020700ce0090005e0090008c
:101f4000808050002e0190005e0090000000410053
:101f50006e029000fe029000810178003e01900028
:101f6000800078003e00900005020700ae0090005f
:101f70005e009000808040001e0190005e00900096
:101f8000000041006e029000fe029000c3c0b3004a
:101f90005e0190003f010700ae0090005e009000df
:101fa000808040003e0190005e00900000005100e3
:101fb0006e029000fe02900033c0b3005e019000fc
:101fc00034010700ce0090005e0090008080500039
:101fd0001e0190005e009000000041006e02900023
:101fe000fe02900003c3b3005e01900029010700c8
:101ff000ce0090005e009000808050003e01900076
:102000005e009000000051006e029000fe02900001
:1020100003ccb3005e0190001e01070003003700ef
:102020000000000001003700000000000080fa00fe
:10203000000006000800fa00000f78001107980061
:102040002207980033079800804080001002780033
:102050002e019000be0190009e0090001e007800ae
:10206000040001000080fa00000006001400fa00dd
:10207000500798006107980072079800040f9800b5
:10208000150f98005e0090000000e0008100350010
:102090006e0090000000e000800035007e0090009f
:1020a0000000e0007f0034007e009000000040004f
:1020b00061001000200798000000eb003007980036
:1020c0000000eb0040079800fe009000010f780030
:1020d0000000eb0010079800690037008040800086
:1020e00010027800ee0090001e00900080804000fa
:1020f0005e0090001e0050000e0990009e099000a6
:10210000040001008040800010027800ee00900082
:102110001e009000808050005e0090001e00500065
:102120000e0990009e09900004000100804080008c
:1021300010027800ee0090001e00900080804000a9
:102140005e0090001e0040000e0990009e09900065
:10215000040001008040800010027800ee00900032
:102160001e009000808050005e0090001e00400025
:102170000e0990009e09900004000100804080003c
:10218000100278006e0090009e0040005e019000fa
:102190001e009000000051000e0990009e09900062
:1021a0000400010080408000100278006e00900062
:1021b0009e0050005e0190001e0090000000510043
:1021c0000e0990009e0990000400010080408000ec
:1021d000100278006e0090009e0040005e019000aa
:1021e0001e009000000041000e0990009e09900022
:1021f0000400010080408000100278006e00900012
:102200009e0050005e0190001e0090000000410002
:102210000e0990009e099000040001001e0090002d
:102220000000e80010079800ce0090003e009000eb
:1022300000804000400798003e0090000080e800c9
:10224000300798004e0090000000400080007800a9
:102250002e009000008040000000e00008003400e4
:102260001e0fe900ce0090002e009000008040007c
:10227000400798002e0090000080e800200798009a
:102280001e0090009e007800808f500093ff3d005c
:1022900005003700000000000300370000000000c8
:1022a00001003700000000000080fa000000060076
:1022b0001000fa0030079800410798005207980074
:1022c00064079800750798003e0090000000e00049
:1022d000690035004e0090000000e0006800350005
:1022e0005e0090000000e000670034005e00900097
:1022f0000000400063001000200798000000eb0081
:10230000000f7800de009000110798004f003700a2
:102310001e0090000000e0001a003400ce00900083
:102320001e009000808140003e0090001e01500081
:10233000ce0090001e009000808050003e00900073
:102340001e0050006e029000fe0290000c0107007b
:10235000ce0090001e009000808140003e00900062
:102360001e014000ce0090001e00900080805000b2
:102370003e0090001e0040006e029000fe029000a1
:10238000ff0007001e0078000000e0001a00340083
:102390004e0090009e014000be0090001e00900084
:1023a000008150004e0090009e0050003e029000c0
:1023b0001e009000000052006e029000fe0290008d
:1023c000ef0007004e0090009e014000be0090000c
:1023d0001e009000008140004e0090009e005000c2
:1023e0003e0290001e009000000042006e0290002d
:1023f000fe029000e20007002e0090000000e000c6
:1024000007003d001e0078004200dd00660040002d
:10241000ae00900000804000200798000a003700be
:102420001e0090001e0010004200dd006a00400007
:10243000ae00900000804000200798001e00900031
:102440000000e900100798001e0fe8001e00900031
:102450009e007800808f5000adff34006e02900027
:10246000fe0290005e019000ce0090003e009000c1
:10247000fefe0700050037000000000003003700e3
:102480000000000001003700000000000080fa009a
:10249000000006001600fa00500798006107980037
:1024a0007207980003579800140f9800250f9800a2
:1024b0005e0090000000e000aa0035006e00900071
:1024c0000000e000a90035007e0090000000e00060
:1024d000a80034007e009000000040006100100061
:1024e000200798000000eb00300798000000eb0088
:1024f00040079800fe009000010f78000000eb00fc
:1025000010079800920037000e5090000080fb00ea
:1025100061006000004078000004e0000a00320022
:102520008040800010027800ee0090001e009000b5
:10253000808050005e0090001e0040001e09900048
:10254000ae099000040001000e5090000080fb00d6
:10255000620060000000e0000a003200804080005d
:10256000100278006e0090009e0050005e01900006
:102570001e009000000041001e099000ae0990006e
:10258000040001000e5090000080fb006400600019
:102590000000e0000a003200804080001002780055
:1025a0006e0090009e0050005e0190001e009000a2
:1025b000000051001e099000ae09900004000100c7
:1025c0000e5090000080fb00680060000000e000fa
:1025d0000a0032008040800010027800ee00900077
:1025e0001e009000808050005e0090001e00500091
:1025f0001e099000ae099000040001000e509000ea
:102600000080fb00700060000000e0000a00320063
:102610008040800010027800ee0090001e009000c4
:10262000808040005e0090001e0050001e09900057
:10263000ae099000040001000e5090008080fb0065
:1026400000022000008060000000e0000a0032006c
:1026500080408000100278006e0090009e004000d4
:102660005e0190001e009000000051001e099000c5
:10267000ae099000040001000e5090008080fb0025
:1026800000042000008060000000e0000a0032002a
:1026900080408000100278006e0090009e00400094
:1026a0005e0190001e009000000041001e09900095
:1026b000ae099000040001000e5090000004e000fc
:1026c0000a003d008040800010027800ee0090007b
:1026d0001e009000808040005e0090001e004000c0
:1026e0001e099000ae099000040001001e00900039
:1026f0000000e80010079800ce0090003e00900017
:1027000000804000400798003e0090000080e800f4
:10271000300798004e0090000000400080007800d4
:102720002e009000008040000000e000080034000f
:102730001e0fe900ce0090002e00900000804000a7
:10274000400798002e0090000080e80020079800c5
:102750001e0090009e007800808f50006aff3d00b0
:1027600005003700000000000300370000000000f3
:1027700001003700000000000080fa0000000600a1
:102780002200fa00300f9800410f9800520f980075
:10279000630f9800740f980005179800de089000ea
:1027a0003e089000808f500006003d00de0890003b
:1027b000010f7800be089000510f98009e0078002d
:1027c000310f9800ee0890004e089000808f500066
:1027d00006003d00ee089000010f7800ce08900042
:1027e000610f98009e007800410f980080408000a3
:1027f000607890000080fb00620060000000e00054
:102800000c003200804080006018900000037800c7
:102810007e0a90008e129000ee0990005e099000f2
:10282000ce0890003e089000060001000004e00081
:102830007b003200de0890003e08900000805000cf
:1028400050079800ee0890004e089000008050005d
:10285000600798005e00900000f0a7000000ea000a
:10286000700798006e00900000f0a7000000ea00da
:10287000000f98005e0090000000e00002003400ad
:1028800010002000010037000080eb00100f9800be
:102890006e0090000000e0000200340010002000f4
:1028a000010037000080eb00200f98000e08900018
:1028b0000080d100100798007e0090000080d100b9
:1028c00020079800be08900031079800ce089000bd
:1028d0004107980080408000100278007e09900037
:1028e0008e119000ce0090003e0090000400010088
:1028f000fe0090000e089000808f500024003500ec
:102900000000eb00000f78001c003700ae009000c4
:102910000e0890000080400020079800ae00900054
:102920007e009000808f500008003500ae009000bf
:102930007e0090000080500020079800ce0090009c
:102940002e0890000080400040079800be009000d4
:102950001e089000008040003007980080408000f2
:10296000100278007e0990008e119000ce00900039
:102970003e009000040001001e0fe8007e00900061
:102980009e007800808f5000e0ff35002500370062
:102990000000eb00000f78001c0037009e00900044
:1029a0007e00900000804000100798009e0090007c
:1029b0000e089000808f5000080035009e009000a7
:1029c0000e0890000080500010079800be00900094
:1029d0001e0890000080400030079800ce00900054
:1029e0002e08900000804000400798008040800042
:1029f000100278007e0990008e119000ce009000a9
:102a00003e009000040001001e0fe8000e08900038
:102a10009e007800808f5000e0ff350001003700f5
:102a2000000000000080fa00000006000c00fa0020
:102a3000300798004107980052079800be009000a8
:102a4000010f7800ce009000110798003600370083
:102a50005e00900090407800414798004e40900002
:102a6000ea4f500007003a0080408000900090003c
:102a7000010f78005e0090000000e8005007980009
:102a80002900370080408000401090009e004000e8
:102a900080408000100090000000e900808f50000e
:102aa0000b003400be009000010f780080408000d1
:102ab000d010900080408000506890000000fb0023
:102ac000008040009e0090000080400010079800a9
:102ad0008040800010199000a01990008040800074
:102ae00080189000701090000203be000002be002b
:102af0001e0190009e0078004e40900010000700dc
:102b000080408000c01090008040800040689000ad
:102b10000000fb00008040001e0f40005e0090009f
:102b20000000e800500798005e0090001040780018
:102b30000004e000c6ff3a000080fa000000060032
:102b40002000fa0020579800210f9800320f9800bb
:102b5000440f9800550f9800660f9800770f980063
:102b6000ae509000714f98007e4890000080fb00ae
:102b7000610d2000810f500021003200610d200006
:102b8000810f50000a003c00510b2000810f5000c3
:102b90002a003200410c2000810f50002400320036
:102ba000010b2000810f5000270032002900370060
:102bb000410e2000810f50001a003200410e20000b
:102bc000810f500004003c00c10d2000810f500017
:102bd000110032001f003700610f2000810f5000ec
:102be00004003200c10f2000810f500007003200a6
:102bf0001800370040c9b300704f98001500370027
:102c000090c9b300704f98001200370010c8b3008d
:102c1000704f98000f003700a0c9b300704f9800a4
:102c20000c00370040c8b300704f9800090037000f
:102c3000e0c8b300704f98000600370060ceb300c4
:102c4000704f98000300370080cfb300704f98009a
:102c500000000000be0890004107980080408000fe
:102c600040109000600798006e0090000000e000a7
:102c7000690032006e0090004300de00600798009b
:102c80008040800040109000670060000000e0007d
:102c9000030032006e0090000000e800600798001a
:102ca00080408000b0109000010f98007e48900096
:102cb0008080fb0080408000501090000088b900a8
:102cc00000007800800078006e0090000088b90055
:102cd000000078008e08900000804000000f9800ef
:102ce0000000eb001007980044003700ae08900089
:102cf00031079800804080004010900050079800f5
:102d00000000eb00000f7800320037000e08900042
:102d100090407800614f98000e0890000000e80095
:102d2000000f98000000eb002007980022003700f9
:102d30006e4890000080fb00610060000040780059
:102d40000004e0000800320080408000100278009b
:102d5000ce0090003e0090004e099000de099000e9
:102d60000400010007003700804080001002780056
:102d7000ce0090003e0090006e099000fe09900089
:102d8000040001006e4890000080fb000000d100ac
:102d9000604f98003e0090000000e8003007980067
:102da0005e0090000000e900500798002e0090009f
:102db0000000e800200798002e009000e70f500068
:102dc00003003e005e0090000000e000d8ff3a00e3
:102dd0001e0fe8006e0090009e007800808f50006b
:102de000caff39004e0090000000e800400798003c
:102df0001e0090000000e80010079800804080004e
:102e000050109000800078001e009000808f5000cd
:102e1000b6ff3e0001003700000000000080fa000d
:102e2000000006000400fa00889fbe00100798000a
:102e3000630037001e009000104f78001e4078009d
:102e4000ea4f500008003a00804080008140800036
:102e500091009000110898001e0090000000e8000a
:102e600010079800560037008040800081408000a5
:102e70001109900081408000c111900081408000c4
:102e8000c16890008100fb00818041008100410009
:102e900011089800804080009008900080408000d9
:102ea00040109000808040008040800050089000da
:102eb000808f50000f0034008040800081408000ef
:102ec000b108900011089800804080008140800087
:102ed0002109900081408000d11190008140800044
:102ee000d16890008100fb00818041008100410099
:102ef0002108980080408000a00890008040800059
:102f00005010900080804000804080006008900059
:102f1000808f500017003400804080008140800086
:102f2000b108900011089800804080008140800026
:102f3000c10890002108980080408000a0109000f7
:102f40001010900082408000e209900082408000d2
:102f50005209900084408000c40b9000844080009f
:102f6000340b90000002be00870078000600780055
:102f700058fa07008040800010119000a0119000c6
:102f80008040800080109000700890008440800095
:102f9000a40c900084408000140c90000203be003a
:102fa0000002be0009017800880078001e40780009
:102fb000e3fe07001e0090000000e80010079800e4
:102fc0001e009000104078000004e00099ff3a00d5
:102fd0004f04be000080fa00000006000800fa005e
:102fe000000f780011079800220798003307980017
:102ff000804080009e00780031089800804080006a
:103000009e0090004108980080408000ae00900033
:103010005108980080408000be0090006108980030
:103020000080fa00000006000400fa00008fbe00d5
:10303000804080001e01be007208980003109800b6
:103040000080fa00000006000400fa00008fbe00b5
:10305000804080001e01be001210980023109800ce
:103060000080fa00000006000400fa00008fbe0095
:10307000804080001e01be00721098000318980066
:103080000080fa00000006000400fa00008fbe0075
:10309000804080001e01be0012189800231898007e
:1030a0000080fa00000006000000fa008040800066
:1030b000100090000080fa00000006000000fa00f6
:1030c00080408000200090000080fa000000060090
:1030d0000200fa00000f7800804080009e00780017
:1030e00081407800416898000080fa0000000600e6
:1030f0000200fa00000f7800804080009e007800f7
:1031000081407800516898000080fa0000000600b5
:103110003200fa00001f98000e189000a0009000e6
:10312000710f98000e189000b000900001179800e1
:103130000e189000c0009000111798000e18900013
:10314000d0009000211798000e189000c0509000f9
:10315000616798000e189000100090009000900099
:10316000411798000e18900010009000a0009000e9
:10317000511798000e189000b00890006117980041
:103180000e189000c0089000711798000e1890005b
:1031900090007800510f9800de089000610f9800b1
:1031a0000e18900010009000100078000000e00061
:1031b000510132005e0890000000e0005001320032
:1031c000ae1090000e109000808050000e189000fd
:1031d0001000900020009000808f50004a013500c0
:1031e0001000200010079800de089000610f980082
:1031f0000a0037006e08900010407800ea4f500037
:1032000003003a001e0090000000e800100798003c
:103210006e0890000000e800600f98006e089000b3
:10322000104078000004e000f2ff3a000000eb00dc
:10323000300798006e6090008080fb000003200043
:10324000008060000000e00017003200ae10900027
:103250000e109000008050000000e8003007980039
:103260003e019000de1090001e0090000088b90022
:103270000000780000005100300798003e019000e7
:103280001e0090008000e9007e1090000088b900c8
:103290000000780000005100300798003e009000c8
:1032a0000000e0001a0135006e6090000080fb0015
:1032b000700060000000e000030032003e0090005b
:1032c0000080d10030079800be0090000e109000e2
:1032d00000804000300798000000eb00000f7800ed
:1032e000de089000610f9800040037006e0890001f
:1032f0000000e800600f98001e0fe8006e089000c4
:10330000104078000004e000040032006e089000d5
:1033100010407800ea4f5000f4ff3a009e109000f1
:103320007e089000008050000000e8002007980010
:103330002e019000ce1090001e0078000088b90089
:103340000000780000005100200798002e01900036
:103350009e00e9006e1090000088b900000078001f
:1033600000005100200798002e0090000000e000af
:10337000e90035006e6090000080fb006100600095
:10338000004078000004e000030032000000eb0081
:1033900020079800080037006e6090000080fb0056
:1033a000620060000000e000030032002e00900088
:1033b0000080d10020079800ae0090007e089000a9
:1033c0000080400020079800bd0037005e08900094
:1033d000104078000004e000d10032005e08900048
:1033e00010407800705798007e5090000080fb00dd
:1033f000610d2000810f500021003200610d20007e
:10340000810f50000a003c00510b2000810f50003a
:103410002a003200410c2000810f500024003200ad
:10342000010b2000810f50002700320029003700d7
:10343000410e2000810f50001a003200410e200082
:10344000810f500004003c00c10d2000810f50008e
:10345000110032001f003700610f2000810f500063
:1034600004003200c10f2000810f5000070032001d
:103470001800370040c9b300705798001500370096
:1034800090c9b300705798001200370010c8b300fd
:10349000705798000f003700a0c9b300705798000c
:1034a0000c00370040c8b30070579800090037007f
:1034b000e0c8b300705798000600370060ceb30034
:1034c000705798000300370080cfb3007057980002
:1034d00000000000be009000010f9800ce10900088
:1034e000210f98002e0890004300de00200f980066
:1034f0004e109000670060000000e0000300320002
:103500002e0890000000e800200f98000e18900090
:103510001000900090007800410f98007e509000bd
:103520008080fb005e1090000088b90000007800e9
:10353000800078002e0890000088b9000000780014
:10354000ce08900000804000400f98000000eb0083
:10355000500798004d003700ae00900071079800aa
:10356000ce109000110f98000000eb00400798006b
:103570003c0037004e08900090407800615798005a
:103580004e0890000000e800400f98000000eb009b
:10359000600798002a0037006e5090000080fb0002
:1035a00061006000004078000004e0000c00320080
:1035b00080408000100378000e189000f00090000a
:1035c000600090008e0a90007e0290000001be0014
:1035d0008500780004007800060001000b00370029
:1035e00080408000100378000e1890009008900032
:1035f000000890008e0a90007e0290000001be003c
:103600008500780004007800060001006e509000ec
:103610000080fb000000d100605798007e00900001
:103620000000e800700798001e0890000000e90004
:10363000100f98006e0090000000e80060079800ee
:103640006e009000e70f500003003e001e0890003f
:103650000000e000d0ff3a004e0090000000e800bb
:1036600040079800ce0090002e089000808f5000f8
:10367000c0ff39000e0890000000e800000f98001d
:103680005e0090000000e80050079800de109000f7
:103690005e009000808f5000afff3e00ce10900083
:1036a0006e10900000804000ae009000008040004e
:1036b000200798005e0890000000e800500f980076
:1036c0005e08900010407800ea4f50003fff3a003b
:1036d0005e0890000000e800500f9800de10900097
:1036e0007e10900000804000be00900000804000ee
:1036f00030079800f8fe370000000000090037008e
:10370000000000000700370000000000050037003f
:103710000000000003003700000000000100370037
:10372000000000000080fa00000006000600fa0019
:10373000200798002e00900090009000110798003c
:103740000040eb00004f7800170037002e0090007b
:10375000100190001e80fb007a00b9000000780084
:1037600000004100100798001e00900010407800f3
:103770000080fb0061006000004078000004e00071
:10378000080032001e009000104078000080fb000e
:10379000620060000000e000020032001e009000a5
:1037a000060037001e4fe8002e0090001040780001
:1037b0009e4f5000e5ff3e000000eb000080fa0045
:1037c000000006000800fa002007980061479800f2
:1037d000724798002e00900090009000110798000a
:1037e0000040eb00004f7800200037002e009000d2
:1037f000100190001e80fb007a00b90000007800e4
:1038000000004100100798001e0090001040780052
:103810000080fb00610060000000e00012003a0040
:103820001e009000104078000080fb0062006000e5
:103830000000e0000c0032001e009000c05090001c
:103840006e40900080cf500007003a001e009000ac
:10385000d05090007e40900080cf500002003a008f
:103860001e009000060037001e4fe8002e0090005a
:10387000104078009e4f5000dcff3e000000eb003f
:103880000080fa00000006000600fa001007980009
:1038900041479800524798000000eb00000f780065
:1038a0005e419000ce4090001e009000c5ff0700d2
:1038b000000f78001e0078000000e00026003200b3
:1038c0001e007800104078000080fb006800600057
:1038d0000000e00007003a001e0078001040780069
:1038e0008080fb0000022000008060000000e000fb
:1038f0000200320000c0eb00180037001e00780004
:1039000031c0b300014878001e0078008000eb0051
:10391000410898001e0078008040eb00615098003c
:103920001e0078008040eb00515098001e00780087
:103930008040eb00114098001e0078008040eb00b2
:10394000415098001e0078008000eb0011009800a4
:103950000040eb000100370000c0eb000080fa00df
:10396000000006001200fa00000f9800804080005e
:10397000c00090002107980080408000d000900097
:103980003107980080408000e0409000014f98008f
:103990000e089000104078000080fb00500798004f
:1039a0000000eb00000f78008a0037000e0890003e
:1039b000100190001e0078007a00b9000000780025
:1039c00000004100600798006e0090009040780071
:1039d000614f98006e009000904090002147980041
:1039e0006e4890000080fb00610060000000e00075
:1039f00074003a006e4890000080fb006200600096
:103a00000000e0006f0032006e4890000080fb0074
:103a1000680060000000e0006a0032006e4890001c
:103a20008080fb0000042000008060000000e000b7
:103a300064003a000e4890000004e00039003200b3
:103a40002e009000e10f4000360032002e40900022
:103a50008080fb0000042000008060000000e00087
:103a600006003a002e4090005040b30020479800d6
:103a70002e4090007046b200204798002e409000e3
:103a80000054a100204798006e009000a000900014
:103a90002e009000808f50001e003c006e009000b1
:103aa000c00090002e009000808f5000190035005b
:103ab0006e009000b00090003e009000808f50009b
:103ac00014003c006e009000d00090003e0090007a
:103ad000808f50000f0035002e4090000054a00051
:103ae000204798002e4090008080fb0000042000ba
:103af000008060000000e00006003a002e409000c8
:103b00000024a100204798002e4090000014a0003f
:103b1000204798002e4090000064a00020479800a5
:103b2000280037002e4090008080fb000004200019
:103b3000008060000000e000220032002e40900073
:103b40008080fb0000022000008060000000e00098
:103b50000c0032002e4090000080fb0062006000ec
:103b60000000e000030032002e4090000074a0002e
:103b7000204798002e4090000034a0002047980075
:103b8000030037002e4090000044a000204798001a
:103b90002e4090008080fb00000420000080600028
:103ba0000000e000030032002e4090000004a0005e
:103bb00020479800ae40900090cbb30000c060005a
:103bc000204798006e009000ae4090001140980091
:103bd0001e0fe8005e0090009e007800808f50006d
:103be00072ff39000080fa00000006000a00fa00a7
:103bf000400798004e009000104078000080fb00c5
:103c0000100798000000eb00000f78003600370026
:103c10004e009000100190001e0078007a00b9005c
:103c20000000780000004100200798002e0090005e
:103c300090407800614798002e00900090409000de
:103c4000714798006e4090000080fb0061006000aa
:103c50000000e00023003a006e4090000080fb006e
:103c6000620060000000e0001e0032006e40900024
:103c70008080fb0000022000008060000000e00067
:103c8000050032002e00900010019000ae00900060
:103c90004e009000020001006e4090000080fb008a
:103ca000680060000000e0000e0032006e409000ee
:103cb0000004e0000b003d007e4090008080fb008f
:103cc00010042000008060000000e00005003200c9
:103cd0002e00900010019000ae0090004e00900069
:103ce000020001001e0fe8001e0090009e007800f8
:103cf000808f5000c6ff39000080fa0000000600e7
:103d00000a00fa00400798000000eb00e06188001c
:103d100080c3200021c0b300014878004e0090000d
:103d2000104078000080fb00100798000000eb00b6
:103d3000000f78002a0037004e009000100190001c
:103d40001e0078007a00b9000000780000004100f1
:103d5000300798003e00900090407800414798005e
:103d60004e4090000080fb00610060000000e00019
:103d70001a003a004e4090000080fb006200600094
:103d80000000e000150032003e00900060509000fe
:103d90000004e0001100320066004700e061880086
:103da0003e009000c050900090c320000148780071
:103db0003e009000d0509000a0c320000148780041
:103dc0004e0090009018900080c320000100010078
:103dd0003e0090008040eb00615098001e0fe8000c
:103de0001e0090009e007800808f5000d2ff3900a6
:103df0000080fa00000006000a00fa00000f7800b8
:103e0000110798002207980033079800440798008c
:103e10004e0090001000be004e0190006401410071
:103e2000420798002e0190000201e9000002be0046
:103e30009e0190009e0090001e00780050fa07003e
:103e40004e0090001000be004e0190006401410041
:103e5000420798003e0190000201e9009e01900097
:103e60000303e8000002be00820178001e01780012
:103e7000860078001e00780041fa07004e0090008e
:103e80001000be004e0190006401410042079800fe
:103e90000002be00be0190002e019000be00900006
:103ea0001e00780036fa07004e0090001000be0099
:103eb0004e01900064014100420798003e019000cd
:103ec0000201e9000002be00820178002e0190008c
:103ed0009e0090002e00900029fa07004e009000ee
:103ee0001000be004e01900064014100420798009e
:103ef0001e0190008201e8002e0190000281e9007d
:103f00001e0290008403e8001e03e8000002be00c9
:103f1000870078000600780019fa07004e0090002c
:103f20001000be004e01900064014100420798005d
:103f30003e0190008281e9001e01e8001e0290000f
:103f40008483e8001e03e8000002be0087007800ba
:103f5000060078000afa07004e0090001000be002c
:103f60004e01900064014100420798003e0190001c
:103f70008201e9002e0190000201e9003e0290005a
:103f80008403e9001e03e8000002be0087007800f9
:103f900006007800faf907004e0090001000be00fd
:103fa0004e01900064014100420798003e019000dc
:103fb0008281e9002e0190000201e9001e029000ba
:103fc0008403e8002e0290000403e9000002be0012
:103fd0008700780006007800e9f907004e0090009d
:103fe0001000be004e01900064014100420798009d
:103ff0001e0190008281e8002e01900063015100b3
:104000001e0290008483e8001e83e8000002be00c8
:104010008700780006007800d9f907004e0090006c
:104020001000be004e01900064014100420798005c
:104030003e019000e30151001e81e8001e02900045
:10404000e30342001e83e8000002be008700780000
:1040500006007800caf907004e0090001000be006c
:104060004e01900064014100420798003e0190001b
:104070008281e9002e0190000281e9003e02900059
:104080008483e9001e83e8000002be0087007800f8
:1040900006007800baf907004e0090001000be003c
:1040a0003e019000e30151002e0190000281e900e1
:1040b0001e0290008483e8002e0290000483e90031
:1040c0000002be008700780006007800acf9070007
:1040d0000080fa00000006000400fa00004f78009b
:1040e000110798001e407800e14f50000f003e007d
:1040f000814080001e80fb006f0040004200dd0018
:10410000008040009e0090000108780081408000ff
:104110001e80fb004200dd0000804000e003b00094
:1041200031c0b300014878000100370000000000f2
:104130000080fa00000006000200fa00004f78003c
:104140001e407800e14f500017003e008140800083
:104150001e80fb004200dd00e003b00061407800fb
:104160000080fb0061006000004078000004e00077
:104170000e003200824080001e80fb0083408000e1
:104180009e80fb00c208dd00e103b000e3c07800c0
:104190000114a0004200dd0000004100e003b00077
:1041a0000148780001003700000000000080fa009c
:1041b000000006000200fa00004f78001e40780060
:1041c000e14f500017003e00814080001e80fb0040
:1041d0004200dd00e003b000614078000080fb0099
:1041e00061006000004078000004e0000e00320032
:1041f000824080001e80fb00834080009e80fb0088
:10420000c208dd00e103b000e3c078000114a100a2
:104210004200dd0000004100e003b00001487800ea
:1042200001003700000000000080fa0000000600d6
:104230000200fa0080408000207890000080fb009f
:1042400061006000004078000004e00005003200da
:104250008040800081408000a17890000104a1008e
:104260002178980080408000e0009000804080002d
:1042700070009000808f50004c0032008040800021
:10428000600090000000e0004800320080408000a4
:1042900081408000f100900001089800804080007b
:1042a00081408000e1009000710098008040800013
:1042b00000089000605090000080fb0062006000e9
:1042c0000000e0002a0032008040800000089000da
:1042d000404090000080fb00680060000000e000ab
:1042e000230032008040800000089000f000900021
:1042f000804080007000900070009000808f50001f
:1043000018003a008040800000089000900890005b
:10431000804080007000900010089000808f500056
:1043200010003a0080408000000890008008900053
:10433000804080007000900000089000808f500046
:1043400008003a008040800000089000a00890001b
:10435000804080007000900020089000808f500006
:10436000030032008040800000089000d106070062
:10437000804080007000900081408000f10090003b
:10438000c14090000164a10041409800804080003d
:104390007000900081408000f10090004141900049
:1043a00081c2b3008140710041409800804080008c
:1043b000700090000000e000180032008040800093
:1043c000f0009000010f78001e007800404090003f
:1043d0008080fb0000022000008060000000e00000
:1043e000020032001e0078003b0707001e00780024
:1043f000404090000080fb00680060000000e0008a
:10440000060032001e00780056fd07001e007800ee
:10441000f6fd07001e00780039fe07000080fa0054
:10442000000006000000fa0080408000814080000b
:10443000a17890000104a0002178980000000000fd
:1044400080408000207890000080fb0061006000c8
:10445000004078000004e000f9ff3a000080fa0014
:10446000000006001800fa00100f9800210f9800b5
:10447000320f98003e089000100078000000e00025
:104480005e0032003e08900060409000f04f500007
:104490005c003a003e089000100078002007980069
:1044a0009e089000310798000000eb00100798006c
:1044b0004c003700be009000110f98000000eb0088
:1044c000000f78003c0037002e009000900078002c
:1044d000410798002e0090000080e8002007980017
:1044e0004e0090004b00de00204f9800ae48900038
:1044f000300020000008dd00204f98004e009000a2
:104500004500de0000407800f043b200304f9800d4
:10451000be489000200020000008dd00304f9800c9
:104520004e009000004078007f406000404f9800af
:10453000ce489000300020000008dd00404f980079
:104540002e4890000080fb008000eb00c001dd00e1
:10455000020020003e4890000082fb008002eb0039
:104560004828dd00c820de00810070004820dd0002
:1045700000017100818171004e4890000080fb00b5
:104580008000eb00000071008180710070079800ce
:10459000010f98001e0890009e0890008100e8001e
:1045a000110f98007e0190008e099000ae089000d7
:1045b000a0f607001e0fe8009e0078003e0890005d
:1045c00010009000808f5000bfff39002e0890002f
:1045d0000000e800200f98001e0090000000e80096
:1045e000100798009e0090003e0890002000900068
:1045f000808f5000afff390003003700000000003b
:1046000001003700000000000080fa0000000600f2
:104610000600fa00000f7800110798004247980042
:10462000804080009e00780041009800804080001b
:104630009e0090005100980080408000ce40900085
:10464000614098000080fa00000006000c00fa00ab
:104650002007980031079800024f980053079800f0
:104660000000eb00100798002e0090000000e00012
:10467000060032003e0090000000e000030032001f
:104680000e4890000004e00002003a0000c0eb0079
:10469000610037000040eb00004f78000d0037004c
:1046a0001e80fb007a00b90000007800be00900078
:1046b00000804000100798001e00900031c0b30039
:1046c000014878001e0090008000eb00410898002f
:1046d0001e4fe8000e4890009e40780080cf5000aa
:1046e000efff39002e0090008e48900001487800be
:1046f0002e009000be009000110098002e00900047
:1047000021c0b300414098002e0190006000b80025
:1047100030019800410198002e019000000f2f00f9
:10472000010f200050019800610198002e009000b8
:104730008000eb00710098002e0090008000eb00dc
:104740000108980058fa07008000e9002e00900048
:104750001108980059fa07008000e9002e00900027
:10476000210898002e009000de009000111898009b
:104770002e00900031c0b300615098002e009000d0
:104780008000eb00410898002e0090008000eb00b4
:10479000510898002e00900021c0b30041589800a5
:1047a0002e00900021c0b300515898002e009000b8
:1047b00011c1b300615898002e019000f0ff2f0046
:1047c000f10f200000119800111198002e019000a7
:1047d000f00f2000010020002011980031119800f6
:1047e0002e019000f0ff2f00f10f200040119800e3
:1047f000511198002e0190000008280001082000a7
:1048000060119800711198002e009000f1c0b30063
:10481000017098000040eb000080fa0000000600e4
:104820000200fa00000f78008040800070009000c5
:104830009e0f500002003a0000c0eb002700370036
:104840001e0078000000e000230032001e00780007
:10485000404090000080fb00620060000000e0002b
:104860001d0032001e0078008040eb00414098009f
:104870001e0078008000eb00111898001e007800e0
:104880008040eb00014878001e0078008000eb00bb
:10489000110098001e0078008000eb007100980065
:1048a0001e0078008000eb00010898001e007800d0
:1048b0008000eb00110898001e0078008000eb00db
:1048c000210898001e0078008040eb00615098009d
:1048d0000040eb000100370000c0eb000080fa0050
:1048e000000006000200fa00000f78001e007800a9
:1048f0000000e000110032001e007800c04090006f
:1049000080c2b30080c070001e0078004140980053
:104910001e00780040409000804078000164a100b3
:104920001e00780041409800804080009e00780082
:10493000610098000040eb000100370000c0eb0070
:104940000080fa00000006000200fa00000f780064
:104950001e0078000000e00045003200804080002a
:10496000700090009e0f50003d003a008040800093
:10497000000890000000e0002a0032008040800023
:1049800000089000404090000080fb00680060003c
:104990000000e0002300320080408000000890000a
:1049a000f00090001e00780070009000808f500092
:1049b00015003c00804080000008900080089000b6
:1049c0001e00780000089000808f50000e003c0010
:1049d0008040800000089000900890001e00780041
:1049e00010089000808f5000070035008040800044
:1049f00000089000a00890001e0078002008900099
:104a0000808f500002003d001e0078004f06070016
:104a10008040800081408000810890006100980003
:104a200011003700804080007000900081408000bd
:104a3000f1009000c14090000134a1004140980075
:104a4000804080007000900081408000f100900064
:104a5000c14090000154a00041409800020037007e
:104a60001e007800390607000040eb000100370007
:104a700000c0eb000080fa00000006001000fa0001
:104a80003007980041079800520798006307980084
:104a90007407980084f90700000fe90087f9070000
:104aa0000000e900100798003e0090000000e000c0
:104ab000950032003e009000404090000080fb00d6
:104ac000620060000000e0008f0032004e009000a5
:104ad0000000e000030035005e0090000000e000f0
:104ae00002003d0000c0eb00880037006e0090001f
:104af0009e0f500004003c00fe0090001e0090003d
:104b0000808f50000200340000c0eb007f003700af
:104b1000ee0090004e0090000080500020079800aa
:104b20002e009000e90f500002003c0000c0eb0096
:104b300076003700fe0090005e009000008050007c
:104b4000200798002e009000e90f500002003c0062
:104b500000c0eb006d0037003e009000ce009000da
:104b6000710098003e009000de009000010898005f
:104b70003e009000ee009000110898003e0090006a
:104b8000fe009000210898003e00900040409000f8
:104b90000080fb00680060000000e0005800320068
:104ba00080408000f00090003e009000808f500018
:104bb00053003a003e009000000890000000e00022
:104bc0000c00320080408000c01890003018900027
:104bd0003e019000020990000201e9000002be00bf
:104be000820178001e0178008000eb000000eb00dd
:104bf00038f307003e009000200890000000e80015
:104c000020079800ae0090001e009000808f50009a
:104c100009003c0080408000c018900030189000cf
:104c20000002be009e0190001e017800ae009000c0
:104c30000000eb0027f307003e009000700090009a
:104c40000000e0000e00320080408000c01890009c
:104c5000301890003e019000a20990003e019000a3
:104c6000720190000201e9003e029000040b9000e6
:104c70000002be00860078000000eb0015f307007c
:104c80003e009000100890000000e8002007980007
:104c90002e0090009e0f50000d003c0080408000d0
:104ca000c0189000301890003e019000220990003a
:104cb000be019000030b90000002be00820178004c
:104cc0001e017800860078002e00900001f3070096
:104cd0003e00900040409000804078000164a100b8
:104ce0003e009000414098003e00900040409000ff
:104cf000804078000154a0003e00900041409800a0
:104d00000040eb000100370000c0eb000080fa001b
:104d1000000006000600fa00200798002e00900010
:104d200074020700008fbe002e009000850207006d
:104d30000001be002e00900048000700e14f400037
:104d400002003a0000c0eb00080037001e01be0060
:104d50002e0090005e000700e14f400002003a0084
:104d600000c0eb00010037000040eb000080fa00bb
:104d7000000006000600fa00000f780012079800f5
:104d8000230798001e0078000000e00013003200a6
:104d90001e007800404090000080fb006200600030
:104da0000000e0000d0032001e0078001e0190009f
:104db000ae01900032009800430098001e00780079
:104dc00040409000804078000154a0001e00780010
:104dd000414098000040eb000100370000c0eb00ac
:104de0000080fa00000006000600fa00000f7800bc
:104df00012079800230798001e0078000000e000ca
:104e0000130032001e007800404090000080fb003c
:104e1000620060000000e0000d0032001e0078001b
:104e20001e019000ae0190005200980063009800af
:104e30001e00780040409000804078000154a0009f
:104e40001e007800414098000040eb000100370050
:104e500000c0eb000080fa00000006000600fa0027
:104e6000000f780012079800230798001e007800b2
:104e70000000e000130032001e0078004040900067
:104e80000080fb00620060000000e0000d003200c6
:104e90001e0078001e019000ae01900002109800e4
:104ea000131098001e007800c040900000c6b300a8
:104eb00080c070001e007800414098000040eb0068
:104ec0000100370000c0eb000080fa00000006007f
:104ed0000600fa00000f78001207980023079800d8
:104ee0001e0078000000e000130032001e00780071
:104ef000404090000080fb00620060000000e00085
:104f00000d0032001e0078001e019000ae019000de
:104f100022109800331098001e007800c0409000c6
:104f200000c6b30080c070001e00780041409800a9
:104f30000040eb000100370000c0eb000080fa00e9
:104f4000000006000600fa00000f78001207980023
:104f5000230798001e0078000000e00013003200d4
:104f60001e007800404090000080fb00620060005e
:104f70000000e0000d0032001e0078001e019000cd
:104f8000ae01900042109800531098001e00780067
:104f9000c040900000c6b30080c070001e007800c2
:104fa000414098000040eb000100370000c0eb00da
:104fb0000080fa00000006000600fa00000f7800ea
:104fc00012079800230798001e0078000000e000f8
:104fd000130032001e007800404090000080fb006b
:104fe000620060000000e0000d0032001e0078004a
:104ff0001e019000ae01900062109800731098009e
:105000001e007800c040900000c6b30080c0700051
:105010001e007800414098000040eb00010037007e
:1050200000c0eb000080fa00000006000400fa0057
:10503000000f7800110798001e0078000000e000c3
:10504000110032001e007800404090000080fb00fc
:10505000620060000000e0000b0032001e007800db
:105060009e009000410898001e007800c04090000b
:1050700000c6b30080c070001e0078004140980058
:105080000040eb000100370000c0eb000080fa0098
:10509000000006000400fa00000f780011079800d5
:1050a0001e0078000000e000250032001e0078009d
:1050b000404090000080fb00620060000000e000c3
:1050c0001f0032001e007800c040900000c6b300f0
:1050d00080c070001e007800414098001e007800db
:1050e0009e009000510898001e007800007090000b
:1050f0008080fb001e009000200090000000e8006f
:10510000808f50000c003c001e009000200090009a
:105110000040780080c0e8001e0078000170980010
:105120001e00780040409000804078000164a1009b
:105130001e007800414098000040eb00010037005d
:1051400000c0eb000080fa00000006000400fa0036
:10515000000f7800214798001e0078000000e00052
:10516000110032001e007800404090000080fb00db
:10517000620060000000e0000b0032001e007800ba
:10518000ae409000415898001e007800c04090004a
:1051900000c6b30080c070001e0078004140980037
:1051a0000040eb000100370000c0eb000080fa0077
:1051b000000006000400fa00000f78002147980064
:1051c0001e0078000000e000110032001e00780090
:1051d000404090000080fb00620060000000e000a2
:1051e0000b0032001e007800ae409000515898002d
:1051f0001e007800c040900000c6b30080c0700060
:105200001e007800414098000040eb00010037008c
:1052100000c0eb000080fa00000006000400fa0065
:10522000000f7800214798001e0078000000e00081
:10523000110032001e007800404090000080fb000a
:10524000620060000000e0000b0032001e007800e9
:10525000ae409000615898001e007800c040900059
:1052600000c6b30080c070001e0078004140980066
:105270000040eb000100370000c0eb000080fa00a6
:10528000000006000400fa00000f78002147980093
:105290001e0078000000e000170032001e007800b9
:1052a000404090000080fb00620060000000e000d1
:1052b000110032001e007800ae409000017098008e
:1052c0001e00780040409000804078000164a100fa
:1052d0001e007800414098001e0078004040900079
:1052e000804078000154a0001e00780041409800e2
:1052f0000040eb000100370000c0eb000080fa0026
:10530000000006000400fa00000f78001107980062
:105310001e0078000000e0001d0032001e00780032
:10532000404090000080fb00620060000000e00050
:10533000170032001e0078009e0090007100980057
:105340001e007800a00990001e007800100990004f
:105350001e007800800890001e0078007000900009
:105360000302780082017800010178008000780053
:105370001e007800c1fd0700e14f400002003a0026
:1053800000c0eb00030037000040eb0001003700d5
:1053900000c0eb000080fa00000006000400fa00e4
:1053a000000f7800110798001e0078000000e00050
:1053b0001d0032001e007800404090000080fb007d
:1053c000620060000000e000170032001e0078005c
:1053d0009e009000010898001e007800a00990002f
:1053e0001e007800100990001e00780080089000d0
:1053f0001e0078007000900003027800820178009f
:1054000001017800800078001e0078009bfd0700f5
:10541000e14f400002003a0000c0eb0003003700fb
:105420000040eb000100370000c0eb000080fa00f4
:10543000000006000400fa00000f78001107980031
:105440001e0078000000e0001d0032001e00780001
:10545000404090000080fb00620060000000e0001f
:10546000170032001e0078009e009000110898007e
:105470001e007800a00990001e007800100990001e
:105480001e007800800890001e00780070009000d8
:105490000302780082017800010178008000780022
:1054a0001e00780075fd0700e14f400002003a0041
:1054b00000c0eb00030037000040eb0001003700a4
:1054c00000c0eb000080fa00000006000400fa00b3
:1054d000000f7800110798001e0078000000e0001f
:1054e0001d0032001e007800404090000080fb004c
:1054f000620060000000e000170032001e0078002b
:105500009e009000210898001e007800a0099000dd
:105510001e007800100990001e007800800890009e
:105520001e0078007000900003027800820178006d
:1055300001017800800078001e0078004ffd070010
:10554000e14f400002003a0000c0eb0003003700ca
:105550000040eb000100370000c0eb000080fa00c3
:10556000000006000400fa00000f780021479800b0
:105570001e0078000000e000330032001e007800ba
:10558000404090000080fb00620060000000e000ee
:105590002d0032002e4090000080fb006100600072
:1055a000004078000004e000070032001e00780090
:1055b00060509000804078000104a0001e00780038
:1055c00061509800060037001e007800605090007f
:1055d000804078000104a1001e007800615098000e
:1055e0002e4090000080fb00620060000000e000a0
:1055f000070032001e007800605090008040780064
:105600000114a0001e0078006150980006003700c9
:105610001e00780060509000804078000114a100c6
:105620001e007800615098001e00780040409000f5
:10563000804078000154a0001e007800414098008e
:105640000040eb000100370000c0eb000080fa00d2
